{
  "contractName": "NFT",
  "abi": [
    {
      "inputs": [
        {
          "internalType": "string",
          "name": "_name",
          "type": "string"
        },
        {
          "internalType": "string",
          "name": "_symbol",
          "type": "string"
        },
        {
          "internalType": "string",
          "name": "_initBaseURI",
          "type": "string"
        },
        {
          "internalType": "uint256",
          "name": "_royalityFee",
          "type": "uint256"
        },
        {
          "internalType": "address",
          "name": "_artist",
          "type": "address"
        },
        {
          "internalType": "bool",
          "name": "_transferable",
          "type": "bool"
        }
      ],
      "stateMutability": "nonpayable",
      "type": "constructor"
    },
    {
      "anonymous": false,
      "inputs": [
        {
          "indexed": true,
          "internalType": "address",
          "name": "owner",
          "type": "address"
        },
        {
          "indexed": true,
          "internalType": "address",
          "name": "approved",
          "type": "address"
        },
        {
          "indexed": true,
          "internalType": "uint256",
          "name": "tokenId",
          "type": "uint256"
        }
      ],
      "name": "Approval",
      "type": "event"
    },
    {
      "anonymous": false,
      "inputs": [
        {
          "indexed": true,
          "internalType": "address",
          "name": "owner",
          "type": "address"
        },
        {
          "indexed": true,
          "internalType": "address",
          "name": "operator",
          "type": "address"
        },
        {
          "indexed": false,
          "internalType": "bool",
          "name": "approved",
          "type": "bool"
        }
      ],
      "name": "ApprovalForAll",
      "type": "event"
    },
    {
      "anonymous": false,
      "inputs": [
        {
          "indexed": true,
          "internalType": "address",
          "name": "previousOwner",
          "type": "address"
        },
        {
          "indexed": true,
          "internalType": "address",
          "name": "newOwner",
          "type": "address"
        }
      ],
      "name": "OwnershipTransferred",
      "type": "event"
    },
    {
      "anonymous": false,
      "inputs": [
        {
          "indexed": false,
          "internalType": "address",
          "name": "from",
          "type": "address"
        },
        {
          "indexed": false,
          "internalType": "address",
          "name": "to",
          "type": "address"
        },
        {
          "indexed": false,
          "internalType": "uint256",
          "name": "value",
          "type": "uint256"
        }
      ],
      "name": "Sale",
      "type": "event"
    },
    {
      "anonymous": false,
      "inputs": [
        {
          "indexed": false,
          "internalType": "bool",
          "name": "transferable",
          "type": "bool"
        }
      ],
      "name": "ToggleTransferable",
      "type": "event"
    },
    {
      "anonymous": false,
      "inputs": [
        {
          "indexed": true,
          "internalType": "address",
          "name": "from",
          "type": "address"
        },
        {
          "indexed": true,
          "internalType": "address",
          "name": "to",
          "type": "address"
        },
        {
          "indexed": true,
          "internalType": "uint256",
          "name": "tokenId",
          "type": "uint256"
        }
      ],
      "name": "Transfer",
      "type": "event"
    },
    {
      "inputs": [
        {
          "internalType": "address",
          "name": "to",
          "type": "address"
        },
        {
          "internalType": "uint256",
          "name": "tokenId",
          "type": "uint256"
        }
      ],
      "name": "approve",
      "outputs": [],
      "stateMutability": "nonpayable",
      "type": "function"
    },
    {
      "inputs": [],
      "name": "artist",
      "outputs": [
        {
          "internalType": "address",
          "name": "",
          "type": "address"
        }
      ],
      "stateMutability": "view",
      "type": "function",
      "constant": true
    },
    {
      "inputs": [
        {
          "internalType": "address",
          "name": "owner",
          "type": "address"
        }
      ],
      "name": "balanceOf",
      "outputs": [
        {
          "internalType": "uint256",
          "name": "",
          "type": "uint256"
        }
      ],
      "stateMutability": "view",
      "type": "function",
      "constant": true
    },
    {
      "inputs": [],
      "name": "baseExtension",
      "outputs": [
        {
          "internalType": "string",
          "name": "",
          "type": "string"
        }
      ],
      "stateMutability": "view",
      "type": "function",
      "constant": true
    },
    {
      "inputs": [],
      "name": "cost",
      "outputs": [
        {
          "internalType": "uint256",
          "name": "",
          "type": "uint256"
        }
      ],
      "stateMutability": "view",
      "type": "function",
      "constant": true
    },
    {
      "inputs": [
        {
          "internalType": "uint256",
          "name": "tokenId",
          "type": "uint256"
        }
      ],
      "name": "getApproved",
      "outputs": [
        {
          "internalType": "address",
          "name": "",
          "type": "address"
        }
      ],
      "stateMutability": "view",
      "type": "function",
      "constant": true
    },
    {
      "inputs": [
        {
          "internalType": "address",
          "name": "owner",
          "type": "address"
        },
        {
          "internalType": "address",
          "name": "operator",
          "type": "address"
        }
      ],
      "name": "isApprovedForAll",
      "outputs": [
        {
          "internalType": "bool",
          "name": "",
          "type": "bool"
        }
      ],
      "stateMutability": "view",
      "type": "function",
      "constant": true
    },
    {
      "inputs": [],
      "name": "maxSupply",
      "outputs": [
        {
          "internalType": "uint256",
          "name": "",
          "type": "uint256"
        }
      ],
      "stateMutability": "view",
      "type": "function",
      "constant": true
    },
    {
      "inputs": [],
      "name": "name",
      "outputs": [
        {
          "internalType": "string",
          "name": "",
          "type": "string"
        }
      ],
      "stateMutability": "view",
      "type": "function",
      "constant": true
    },
    {
      "inputs": [],
      "name": "owner",
      "outputs": [
        {
          "internalType": "address",
          "name": "",
          "type": "address"
        }
      ],
      "stateMutability": "view",
      "type": "function",
      "constant": true
    },
    {
      "inputs": [
        {
          "internalType": "uint256",
          "name": "tokenId",
          "type": "uint256"
        }
      ],
      "name": "ownerOf",
      "outputs": [
        {
          "internalType": "address",
          "name": "",
          "type": "address"
        }
      ],
      "stateMutability": "view",
      "type": "function",
      "constant": true
    },
    {
      "inputs": [],
      "name": "renounceOwnership",
      "outputs": [],
      "stateMutability": "nonpayable",
      "type": "function"
    },
    {
      "inputs": [],
      "name": "royalityFee",
      "outputs": [
        {
          "internalType": "uint256",
          "name": "",
          "type": "uint256"
        }
      ],
      "stateMutability": "view",
      "type": "function",
      "constant": true
    },
    {
      "inputs": [
        {
          "internalType": "address",
          "name": "operator",
          "type": "address"
        },
        {
          "internalType": "bool",
          "name": "approved",
          "type": "bool"
        }
      ],
      "name": "setApprovalForAll",
      "outputs": [],
      "stateMutability": "nonpayable",
      "type": "function"
    },
    {
      "inputs": [
        {
          "internalType": "bytes4",
          "name": "interfaceId",
          "type": "bytes4"
        }
      ],
      "name": "supportsInterface",
      "outputs": [
        {
          "internalType": "bool",
          "name": "",
          "type": "bool"
        }
      ],
      "stateMutability": "view",
      "type": "function",
      "constant": true
    },
    {
      "inputs": [],
      "name": "symbol",
      "outputs": [
        {
          "internalType": "string",
          "name": "",
          "type": "string"
        }
      ],
      "stateMutability": "view",
      "type": "function",
      "constant": true
    },
    {
      "inputs": [
        {
          "internalType": "uint256",
          "name": "index",
          "type": "uint256"
        }
      ],
      "name": "tokenByIndex",
      "outputs": [
        {
          "internalType": "uint256",
          "name": "",
          "type": "uint256"
        }
      ],
      "stateMutability": "view",
      "type": "function",
      "constant": true
    },
    {
      "inputs": [
        {
          "internalType": "address",
          "name": "owner",
          "type": "address"
        },
        {
          "internalType": "uint256",
          "name": "index",
          "type": "uint256"
        }
      ],
      "name": "tokenOfOwnerByIndex",
      "outputs": [
        {
          "internalType": "uint256",
          "name": "",
          "type": "uint256"
        }
      ],
      "stateMutability": "view",
      "type": "function",
      "constant": true
    },
    {
      "inputs": [],
      "name": "totalSupply",
      "outputs": [
        {
          "internalType": "uint256",
          "name": "",
          "type": "uint256"
        }
      ],
      "stateMutability": "view",
      "type": "function",
      "constant": true
    },
    {
      "inputs": [
        {
          "internalType": "address",
          "name": "newOwner",
          "type": "address"
        }
      ],
      "name": "transferOwnership",
      "outputs": [],
      "stateMutability": "nonpayable",
      "type": "function"
    },
    {
      "inputs": [],
      "name": "transferable_",
      "outputs": [
        {
          "internalType": "bool",
          "name": "",
          "type": "bool"
        }
      ],
      "stateMutability": "view",
      "type": "function",
      "constant": true
    },
    {
      "inputs": [],
      "name": "toggleTransferable",
      "outputs": [
        {
          "internalType": "bool",
          "name": "",
          "type": "bool"
        }
      ],
      "stateMutability": "nonpayable",
      "type": "function"
    },
    {
      "inputs": [],
      "name": "transferable",
      "outputs": [
        {
          "internalType": "bool",
          "name": "",
          "type": "bool"
        }
      ],
      "stateMutability": "view",
      "type": "function",
      "constant": true
    },
    {
      "inputs": [],
      "name": "mint",
      "outputs": [],
      "stateMutability": "payable",
      "type": "function",
      "payable": true
    },
    {
      "inputs": [
        {
          "internalType": "uint256",
          "name": "tokenId",
          "type": "uint256"
        }
      ],
      "name": "tokenURI",
      "outputs": [
        {
          "internalType": "string",
          "name": "",
          "type": "string"
        }
      ],
      "stateMutability": "view",
      "type": "function",
      "constant": true
    },
    {
      "inputs": [
        {
          "internalType": "address",
          "name": "from",
          "type": "address"
        },
        {
          "internalType": "address",
          "name": "to",
          "type": "address"
        },
        {
          "internalType": "uint256",
          "name": "tokenId",
          "type": "uint256"
        }
      ],
      "name": "transferFrom",
      "outputs": [],
      "stateMutability": "payable",
      "type": "function",
      "payable": true
    },
    {
      "inputs": [
        {
          "internalType": "address",
          "name": "from",
          "type": "address"
        },
        {
          "internalType": "address",
          "name": "to",
          "type": "address"
        },
        {
          "internalType": "uint256",
          "name": "tokenId",
          "type": "uint256"
        }
      ],
      "name": "safeTransferFrom",
      "outputs": [],
      "stateMutability": "payable",
      "type": "function",
      "payable": true
    },
    {
      "inputs": [
        {
          "internalType": "address",
          "name": "from",
          "type": "address"
        },
        {
          "internalType": "address",
          "name": "to",
          "type": "address"
        },
        {
          "internalType": "uint256",
          "name": "tokenId",
          "type": "uint256"
        },
        {
          "internalType": "bytes",
          "name": "_data",
          "type": "bytes"
        }
      ],
      "name": "safeTransferFrom",
      "outputs": [],
      "stateMutability": "payable",
      "type": "function",
      "payable": true
    },
    {
      "inputs": [
        {
          "internalType": "string",
          "name": "_newBaseURI",
          "type": "string"
        }
      ],
      "name": "setBaseURI",
      "outputs": [],
      "stateMutability": "nonpayable",
      "type": "function"
    },
    {
      "inputs": [
        {
          "internalType": "uint256",
          "name": "_royalityFee",
          "type": "uint256"
        }
      ],
      "name": "setRoyalityFee",
      "outputs": [],
      "stateMutability": "nonpayable",
      "type": "function"
    }
  ],
  "bytecode": "0x6080604052670de0b6b3a7640000600b556014600c556040518060400160405280600581526020017f2e6a736f6e000000000000000000000000000000000000000000000000000000815250600e9080519060200190620000629291906200030e565b503480156200007057600080fd5b5060405162004a7938038062004a79833981810160405281019062000096919062000638565b85858160009080519060200190620000b09291906200030e565b508060019080519060200190620000c99291906200030e565b505050620000ec620000e06200016b60201b60201c565b6200017360201b60201c565b620000fd846200023960201b60201c565b8260108190555081600f60006101000a81548173ffffffffffffffffffffffffffffffffffffffff021916908373ffffffffffffffffffffffffffffffffffffffff16021790555080601160006101000a81548160ff02191690831515021790555050505050505062000819565b600033905090565b6000600a60009054906101000a900473ffffffffffffffffffffffffffffffffffffffff16905081600a60006101000a81548173ffffffffffffffffffffffffffffffffffffffff021916908373ffffffffffffffffffffffffffffffffffffffff1602179055508173ffffffffffffffffffffffffffffffffffffffff168173ffffffffffffffffffffffffffffffffffffffff167f8be0079c531659141344cd1fd0a4f28419497f9722a3daafe3b4186f6b6457e060405160405180910390a35050565b620002496200016b60201b60201c565b73ffffffffffffffffffffffffffffffffffffffff166200026f620002e460201b60201c565b73ffffffffffffffffffffffffffffffffffffffff1614620002c8576040517f08c379a0000000000000000000000000000000000000000000000000000000008152600401620002bf9062000792565b60405180910390fd5b80600d9080519060200190620002e09291906200030e565b5050565b6000600a60009054906101000a900473ffffffffffffffffffffffffffffffffffffffff16905090565b8280546200031c90620007e3565b90600052602060002090601f0160209004810192826200034057600085556200038c565b82601f106200035b57805160ff19168380011785556200038c565b828001600101855582156200038c579182015b828111156200038b5782518255916020019190600101906200036e565b5b5090506200039b91906200039f565b5090565b5b80821115620003ba576000816000905550600101620003a0565b5090565b6000604051905090565b600080fd5b600080fd5b600080fd5b600080fd5b6000601f19601f8301169050919050565b7f4e487b7100000000000000000000000000000000000000000000000000000000600052604160045260246000fd5b6200042782620003dc565b810181811067ffffffffffffffff82111715620004495762000448620003ed565b5b80604052505050565b60006200045e620003be565b90506200046c82826200041c565b919050565b600067ffffffffffffffff8211156200048f576200048e620003ed565b5b6200049a82620003dc565b9050602081019050919050565b60005b83811015620004c7578082015181840152602081019050620004aa565b83811115620004d7576000848401525b50505050565b6000620004f4620004ee8462000471565b62000452565b905082815260208101848484011115620005135762000512620003d7565b5b62000520848285620004a7565b509392505050565b600082601f83011262000540576200053f620003d2565b5b815162000552848260208601620004dd565b91505092915050565b6000819050919050565b62000570816200055b565b81146200057c57600080fd5b50565b600081519050620005908162000565565b92915050565b600073ffffffffffffffffffffffffffffffffffffffff82169050919050565b6000620005c38262000596565b9050919050565b620005d581620005b6565b8114620005e157600080fd5b50565b600081519050620005f581620005ca565b92915050565b60008115159050919050565b6200061281620005fb565b81146200061e57600080fd5b50565b600081519050620006328162000607565b92915050565b60008060008060008060c08789031215620006585762000657620003c8565b5b600087015167ffffffffffffffff811115620006795762000678620003cd565b5b6200068789828a0162000528565b965050602087015167ffffffffffffffff811115620006ab57620006aa620003cd565b5b620006b989828a0162000528565b955050604087015167ffffffffffffffff811115620006dd57620006dc620003cd565b5b620006eb89828a0162000528565b9450506060620006fe89828a016200057f565b93505060806200071189828a01620005e4565b92505060a06200072489828a0162000621565b9150509295509295509295565b600082825260208201905092915050565b7f4f776e61626c653a2063616c6c6572206973206e6f7420746865206f776e6572600082015250565b60006200077a60208362000731565b9150620007878262000742565b602082019050919050565b60006020820190508181036000830152620007ad816200076b565b9050919050565b7f4e487b7100000000000000000000000000000000000000000000000000000000600052602260045260246000fd5b60006002820490506001821680620007fc57607f821691505b60208210811415620008135762000812620007b4565b5b50919050565b61425080620008296000396000f3fe6080604052600436106101cd5760003560e01c806370a08231116100f7578063a22cb46511610095578063d5abeb0111610064578063d5abeb0114610644578063d6bfc22f1461066f578063e985e9c51461069a578063f2fde38b146106d7576101cd565b8063a22cb46514610597578063b88d4fde146105c0578063c6682862146105dc578063c87b56dd14610607576101cd565b806392ff0d31116100d157806392ff0d31146104ed5780639395b7281461051857806395d89b411461054357806398f246821461056e576101cd565b806370a082311461046e578063715018a6146104ab5780638da5cb5b146104c2576101cd565b806323b872dd1161016f57806343bc16121161013e57806343bc1612146103a05780634f6ccce7146103cb57806355f804b3146104085780636352211e14610431576101cd565b806323b872dd146103005780632f745c591461031c578063326bb4ad1461035957806342842e0e14610384576101cd565b8063095ea7b3116101ab578063095ea7b3146102775780631249c58b146102a057806313faede6146102aa57806318160ddd146102d5576101cd565b806301ffc9a7146101d257806306fdde031461020f578063081812fc1461023a575b600080fd5b3480156101de57600080fd5b506101f960048036038101906101f49190612cb4565b610700565b6040516102069190612cfc565b60405180910390f35b34801561021b57600080fd5b5061022461077a565b6040516102319190612db0565b60405180910390f35b34801561024657600080fd5b50610261600480360381019061025c9190612e08565b61080c565b60405161026e9190612e76565b60405180910390f35b34801561028357600080fd5b5061029e60048036038101906102999190612ebd565b610891565b005b6102a86109a9565b005b3480156102b657600080fd5b506102bf610ad8565b6040516102cc9190612f0c565b60405180910390f35b3480156102e157600080fd5b506102ea610ade565b6040516102f79190612f0c565b60405180910390f35b61031a60048036038101906103159190612f27565b610aeb565b005b34801561032857600080fd5b50610343600480360381019061033e9190612ebd565b610c88565b6040516103509190612f0c565b60405180910390f35b34801561036557600080fd5b5061036e610d2d565b60405161037b9190612f0c565b60405180910390f35b61039e60048036038101906103999190612f27565b610d33565b005b3480156103ac57600080fd5b506103b5610e90565b6040516103c29190612e76565b60405180910390f35b3480156103d757600080fd5b506103f260048036038101906103ed9190612e08565b610eb6565b6040516103ff9190612f0c565b60405180910390f35b34801561041457600080fd5b5061042f600480360381019061042a91906130af565b610f27565b005b34801561043d57600080fd5b5061045860048036038101906104539190612e08565b610fbd565b6040516104659190612e76565b60405180910390f35b34801561047a57600080fd5b50610495600480360381019061049091906130f8565b61106f565b6040516104a29190612f0c565b60405180910390f35b3480156104b757600080fd5b506104c0611127565b005b3480156104ce57600080fd5b506104d76111af565b6040516104e49190612e76565b60405180910390f35b3480156104f957600080fd5b506105026111d9565b60405161050f9190612cfc565b60405180910390f35b34801561052457600080fd5b5061052d6111f0565b60405161053a9190612cfc565b60405180910390f35b34801561054f57600080fd5b50610558611203565b6040516105659190612db0565b60405180910390f35b34801561057a57600080fd5b5061059560048036038101906105909190612e08565b611295565b005b3480156105a357600080fd5b506105be60048036038101906105b99190613151565b61131b565b005b6105da60048036038101906105d59190613232565b611331565b005b3480156105e857600080fd5b506105f16114d0565b6040516105fe9190612db0565b60405180910390f35b34801561061357600080fd5b5061062e60048036038101906106299190612e08565b61155e565b60405161063b9190612db0565b60405180910390f35b34801561065057600080fd5b50610659611608565b6040516106669190612f0c565b60405180910390f35b34801561067b57600080fd5b5061068461160e565b6040516106919190612cfc565b60405180910390f35b3480156106a657600080fd5b506106c160048036038101906106bc91906132b5565b611738565b6040516106ce9190612cfc565b60405180910390f35b3480156106e357600080fd5b506106fe60048036038101906106f991906130f8565b6117cc565b005b60007f780e9d63000000000000000000000000000000000000000000000000000000007bffffffffffffffffffffffffffffffffffffffffffffffffffffffff1916827bffffffffffffffffffffffffffffffffffffffffffffffffffffffff191614806107735750610772826118c4565b5b9050919050565b60606000805461078990613324565b80601f01602080910402602001604051908101604052809291908181526020018280546107b590613324565b80156108025780601f106107d757610100808354040283529160200191610802565b820191906000526020600020905b8154815290600101906020018083116107e557829003601f168201915b5050505050905090565b6000610817826119a6565b610856576040517f08c379a000000000000000000000000000000000000000000000000000000000815260040161084d906133c8565b60405180910390fd5b6004600083815260200190815260200160002060009054906101000a900473ffffffffffffffffffffffffffffffffffffffff169050919050565b600061089c82610fbd565b90508073ffffffffffffffffffffffffffffffffffffffff168373ffffffffffffffffffffffffffffffffffffffff16141561090d576040517f08c379a00000000000000000000000000000000000000000000000000000000081526004016109049061345a565b60405180910390fd5b8073ffffffffffffffffffffffffffffffffffffffff1661092c611a12565b73ffffffffffffffffffffffffffffffffffffffff16148061095b575061095a81610955611a12565b611738565b5b61099a576040517f08c379a0000000000000000000000000000000000000000000000000000000008152600401610991906134ec565b60405180910390fd5b6109a48383611a1a565b505050565b60006109b3610ade565b9050600c548111156109c457600080fd5b6109cc6111af565b73ffffffffffffffffffffffffffffffffffffffff163373ffffffffffffffffffffffffffffffffffffffff1614610abf57600b54341015610a0d57600080fd5b6000606460105434610a1f919061353b565b610a2991906135c4565b9050610a3481611ad3565b6000610a3e6111af565b73ffffffffffffffffffffffffffffffffffffffff168234610a6091906135f5565b604051610a6c9061365a565b60006040518083038185875af1925050503d8060008114610aa9576040519150601f19603f3d011682016040523d82523d6000602084013e610aae565b606091505b5050905080610abc57600080fd5b50505b610ad533600183610ad0919061366f565b611b6f565b50565b600b5481565b6000600880549050905090565b60011515610af76111d9565b151514610b39576040517f08c379a0000000000000000000000000000000000000000000000000000000008152600401610b3090613711565b60405180910390fd5b610b4a610b44611a12565b82611b8d565b610b89576040517f08c379a0000000000000000000000000000000000000000000000000000000008152600401610b80906137a3565b60405180910390fd5b6000341115610c78576000606460105434610ba4919061353b565b610bae91906135c4565b9050610bb981611ad3565b60008473ffffffffffffffffffffffffffffffffffffffff168234610bde91906135f5565b604051610bea9061365a565b60006040518083038185875af1925050503d8060008114610c27576040519150601f19603f3d011682016040523d82523d6000602084013e610c2c565b606091505b5050905080610c3a57600080fd5b7f3f3483d0995db4c081e0101ef6753bef457833c20605cd871de61dcb48085a9a858534604051610c6d939291906137c3565b60405180910390a150505b610c83838383611c6b565b505050565b6000610c938361106f565b8210610cd4576040517f08c379a0000000000000000000000000000000000000000000000000000000008152600401610ccb9061386c565b60405180910390fd5b600660008473ffffffffffffffffffffffffffffffffffffffff1673ffffffffffffffffffffffffffffffffffffffff168152602001908152602001600020600083815260200190815260200160002054905092915050565b60105481565b60011515610d3f6111d9565b151514610d81576040517f08c379a0000000000000000000000000000000000000000000000000000000008152600401610d7890613711565b60405180910390fd5b6000341115610e70576000606460105434610d9c919061353b565b610da691906135c4565b9050610db181611ad3565b60008473ffffffffffffffffffffffffffffffffffffffff168234610dd691906135f5565b604051610de29061365a565b60006040518083038185875af1925050503d8060008114610e1f576040519150601f19603f3d011682016040523d82523d6000602084013e610e24565b606091505b5050905080610e3257600080fd5b7f3f3483d0995db4c081e0101ef6753bef457833c20605cd871de61dcb48085a9a858534604051610e65939291906137c3565b60405180910390a150505b610e8b83838360405180602001604052806000815250611331565b505050565b600f60009054906101000a900473ffffffffffffffffffffffffffffffffffffffff1681565b6000610ec0610ade565b8210610f01576040517f08c379a0000000000000000000000000000000000000000000000000000000008152600401610ef8906138fe565b60405180910390fd5b60088281548110610f1557610f1461391e565b5b90600052602060002001549050919050565b610f2f611a12565b73ffffffffffffffffffffffffffffffffffffffff16610f4d6111af565b73ffffffffffffffffffffffffffffffffffffffff1614610fa3576040517f08c379a0000000000000000000000000000000000000000000000000000000008152600401610f9a90613999565b60405180910390fd5b80600d9080519060200190610fb9929190612ba5565b5050565b6000806002600084815260200190815260200160002060009054906101000a900473ffffffffffffffffffffffffffffffffffffffff169050600073ffffffffffffffffffffffffffffffffffffffff168173ffffffffffffffffffffffffffffffffffffffff161415611066576040517f08c379a000000000000000000000000000000000000000000000000000000000815260040161105d90613a2b565b60405180910390fd5b80915050919050565b60008073ffffffffffffffffffffffffffffffffffffffff168273ffffffffffffffffffffffffffffffffffffffff1614156110e0576040517f08c379a00000000000000000000000000000000000000000000000000000000081526004016110d790613abd565b60405180910390fd5b600360008373ffffffffffffffffffffffffffffffffffffffff1673ffffffffffffffffffffffffffffffffffffffff168152602001908152602001600020549050919050565b61112f611a12565b73ffffffffffffffffffffffffffffffffffffffff1661114d6111af565b73ffffffffffffffffffffffffffffffffffffffff16146111a3576040517f08c379a000000000000000000000000000000000000000000000000000000000815260040161119a90613999565b60405180910390fd5b6111ad6000611ec7565b565b6000600a60009054906101000a900473ffffffffffffffffffffffffffffffffffffffff16905090565b6000601160009054906101000a900460ff16905090565b601160009054906101000a900460ff1681565b60606001805461121290613324565b80601f016020809104026020016040519081016040528092919081815260200182805461123e90613324565b801561128b5780601f106112605761010080835404028352916020019161128b565b820191906000526020600020905b81548152906001019060200180831161126e57829003601f168201915b5050505050905090565b61129d611a12565b73ffffffffffffffffffffffffffffffffffffffff166112bb6111af565b73ffffffffffffffffffffffffffffffffffffffff1614611311576040517f08c379a000000000000000000000000000000000000000000000000000000000815260040161130890613999565b60405180910390fd5b8060108190555050565b61132d611326611a12565b8383611f8d565b5050565b6001151561133d6111d9565b15151461137f576040517f08c379a000000000000000000000000000000000000000000000000000000000815260040161137690613711565b60405180910390fd5b61139061138a611a12565b83611b8d565b6113cf576040517f08c379a00000000000000000000000000000000000000000000000000000000081526004016113c6906137a3565b60405180910390fd5b60003411156114be5760006064601054346113ea919061353b565b6113f491906135c4565b90506113ff81611ad3565b60008573ffffffffffffffffffffffffffffffffffffffff16823461142491906135f5565b6040516114309061365a565b60006040518083038185875af1925050503d806000811461146d576040519150601f19603f3d011682016040523d82523d6000602084013e611472565b606091505b505090508061148057600080fd5b7f3f3483d0995db4c081e0101ef6753bef457833c20605cd871de61dcb48085a9a8686346040516114b3939291906137c3565b60405180910390a150505b6114ca848484846120fa565b50505050565b600e80546114dd90613324565b80601f016020809104026020016040519081016040528092919081815260200182805461150990613324565b80156115565780601f1061152b57610100808354040283529160200191611556565b820191906000526020600020905b81548152906001019060200180831161153957829003601f168201915b505050505081565b6060611569826119a6565b6115a8576040517f08c379a000000000000000000000000000000000000000000000000000000000815260040161159f90613b4f565b60405180910390fd5b60006115b2612156565b905060008151116115d25760405180602001604052806000815250611600565b806115dc846121e8565b600e6040516020016115f093929190613c3f565b6040516020818303038152906040525b915050919050565b600c5481565b6000611618611a12565b73ffffffffffffffffffffffffffffffffffffffff166116366111af565b73ffffffffffffffffffffffffffffffffffffffff161461168c576040517f08c379a000000000000000000000000000000000000000000000000000000000815260040161168390613999565b60405180910390fd5b601160009054906101000a900460ff16156116c1576000601160006101000a81548160ff0219169083151502179055506116dd565b6001601160006101000a81548160ff0219169083151502179055505b7f40cec7445e6af82a2c1482720f9cde27ef6cc85136e8b7abd3efd8c6a0ee566f601160009054906101000a900460ff1660405161171b9190612cfc565b60405180910390a1601160009054906101000a900460ff16905090565b6000600560008473ffffffffffffffffffffffffffffffffffffffff1673ffffffffffffffffffffffffffffffffffffffff16815260200190815260200160002060008373ffffffffffffffffffffffffffffffffffffffff1673ffffffffffffffffffffffffffffffffffffffff16815260200190815260200160002060009054906101000a900460ff16905092915050565b6117d4611a12565b73ffffffffffffffffffffffffffffffffffffffff166117f26111af565b73ffffffffffffffffffffffffffffffffffffffff1614611848576040517f08c379a000000000000000000000000000000000000000000000000000000000815260040161183f90613999565b60405180910390fd5b600073ffffffffffffffffffffffffffffffffffffffff168173ffffffffffffffffffffffffffffffffffffffff1614156118b8576040517f08c379a00000000000000000000000000000000000000000000000000000000081526004016118af90613ce2565b60405180910390fd5b6118c181611ec7565b50565b60007f80ac58cd000000000000000000000000000000000000000000000000000000007bffffffffffffffffffffffffffffffffffffffffffffffffffffffff1916827bffffffffffffffffffffffffffffffffffffffffffffffffffffffff1916148061198f57507f5b5e139f000000000000000000000000000000000000000000000000000000007bffffffffffffffffffffffffffffffffffffffffffffffffffffffff1916827bffffffffffffffffffffffffffffffffffffffffffffffffffffffff1916145b8061199f575061199e82612349565b5b9050919050565b60008073ffffffffffffffffffffffffffffffffffffffff166002600084815260200190815260200160002060009054906101000a900473ffffffffffffffffffffffffffffffffffffffff1673ffffffffffffffffffffffffffffffffffffffff1614159050919050565b600033905090565b816004600083815260200190815260200160002060006101000a81548173ffffffffffffffffffffffffffffffffffffffff021916908373ffffffffffffffffffffffffffffffffffffffff160217905550808273ffffffffffffffffffffffffffffffffffffffff16611a8d83610fbd565b73ffffffffffffffffffffffffffffffffffffffff167f8c5be1e5ebec7d5bd14f71427d1e84f3dd0314c0f7b2291e5b200ac8c7c3b92560405160405180910390a45050565b6000600f60009054906101000a900473ffffffffffffffffffffffffffffffffffffffff1673ffffffffffffffffffffffffffffffffffffffff1682604051611b1b9061365a565b60006040518083038185875af1925050503d8060008114611b58576040519150601f19603f3d011682016040523d82523d6000602084013e611b5d565b606091505b5050905080611b6b57600080fd5b5050565b611b898282604051806020016040528060008152506123b3565b5050565b6000611b98826119a6565b611bd7576040517f08c379a0000000000000000000000000000000000000000000000000000000008152600401611bce90613d74565b60405180910390fd5b6000611be283610fbd565b90508073ffffffffffffffffffffffffffffffffffffffff168473ffffffffffffffffffffffffffffffffffffffff161480611c5157508373ffffffffffffffffffffffffffffffffffffffff16611c398461080c565b73ffffffffffffffffffffffffffffffffffffffff16145b80611c625750611c618185611738565b5b91505092915050565b8273ffffffffffffffffffffffffffffffffffffffff16611c8b82610fbd565b73ffffffffffffffffffffffffffffffffffffffff1614611ce1576040517f08c379a0000000000000000000000000000000000000000000000000000000008152600401611cd890613e06565b60405180910390fd5b600073ffffffffffffffffffffffffffffffffffffffff168273ffffffffffffffffffffffffffffffffffffffff161415611d51576040517f08c379a0000000000000000000000000000000000000000000000000000000008152600401611d4890613e98565b60405180910390fd5b611d5c83838361240e565b611d67600082611a1a565b6001600360008573ffffffffffffffffffffffffffffffffffffffff1673ffffffffffffffffffffffffffffffffffffffff1681526020019081526020016000206000828254611db791906135f5565b925050819055506001600360008473ffffffffffffffffffffffffffffffffffffffff1673ffffffffffffffffffffffffffffffffffffffff1681526020019081526020016000206000828254611e0e919061366f565b92505081905550816002600083815260200190815260200160002060006101000a81548173ffffffffffffffffffffffffffffffffffffffff021916908373ffffffffffffffffffffffffffffffffffffffff160217905550808273ffffffffffffffffffffffffffffffffffffffff168473ffffffffffffffffffffffffffffffffffffffff167fddf252ad1be2c89b69c2b068fc378daa952ba7f163c4a11628f55a4df523b3ef60405160405180910390a4505050565b6000600a60009054906101000a900473ffffffffffffffffffffffffffffffffffffffff16905081600a60006101000a81548173ffffffffffffffffffffffffffffffffffffffff021916908373ffffffffffffffffffffffffffffffffffffffff1602179055508173ffffffffffffffffffffffffffffffffffffffff168173ffffffffffffffffffffffffffffffffffffffff167f8be0079c531659141344cd1fd0a4f28419497f9722a3daafe3b4186f6b6457e060405160405180910390a35050565b8173ffffffffffffffffffffffffffffffffffffffff168373ffffffffffffffffffffffffffffffffffffffff161415611ffc576040517f08c379a0000000000000000000000000000000000000000000000000000000008152600401611ff390613f04565b60405180910390fd5b80600560008573ffffffffffffffffffffffffffffffffffffffff1673ffffffffffffffffffffffffffffffffffffffff16815260200190815260200160002060008473ffffffffffffffffffffffffffffffffffffffff1673ffffffffffffffffffffffffffffffffffffffff16815260200190815260200160002060006101000a81548160ff0219169083151502179055508173ffffffffffffffffffffffffffffffffffffffff168373ffffffffffffffffffffffffffffffffffffffff167f17307eab39ab6107e8899845ad3d59bd9653f200f220920489ca2b5937696c31836040516120ed9190612cfc565b60405180910390a3505050565b612105848484611c6b565b61211184848484612522565b612150576040517f08c379a000000000000000000000000000000000000000000000000000000000815260040161214790613f96565b60405180910390fd5b50505050565b6060600d805461216590613324565b80601f016020809104026020016040519081016040528092919081815260200182805461219190613324565b80156121de5780601f106121b3576101008083540402835291602001916121de565b820191906000526020600020905b8154815290600101906020018083116121c157829003601f168201915b5050505050905090565b60606000821415612230576040518060400160405280600181526020017f30000000000000000000000000000000000000000000000000000000000000008152509050612344565b600082905060005b6000821461226257808061224b90613fb6565b915050600a8261225b91906135c4565b9150612238565b60008167ffffffffffffffff81111561227e5761227d612f84565b5b6040519080825280601f01601f1916602001820160405280156122b05781602001600182028036833780820191505090505b5090505b6000851461233d576001826122c991906135f5565b9150600a856122d89190613fff565b60306122e4919061366f565b60f81b8183815181106122fa576122f961391e565b5b60200101907effffffffffffffffffffffffffffffffffffffffffffffffffffffffffffff1916908160001a905350600a8561233691906135c4565b94506122b4565b8093505050505b919050565b60007f01ffc9a7000000000000000000000000000000000000000000000000000000007bffffffffffffffffffffffffffffffffffffffffffffffffffffffff1916827bffffffffffffffffffffffffffffffffffffffffffffffffffffffff1916149050919050565b6123bd83836126b9565b6123ca6000848484612522565b612409576040517f08c379a000000000000000000000000000000000000000000000000000000000815260040161240090613f96565b60405180910390fd5b505050565b612419838383612887565b600073ffffffffffffffffffffffffffffffffffffffff168373ffffffffffffffffffffffffffffffffffffffff16141561245c576124578161288c565b61249b565b8173ffffffffffffffffffffffffffffffffffffffff168373ffffffffffffffffffffffffffffffffffffffff161461249a5761249983826128d5565b5b5b600073ffffffffffffffffffffffffffffffffffffffff168273ffffffffffffffffffffffffffffffffffffffff1614156124de576124d981612a42565b61251d565b8273ffffffffffffffffffffffffffffffffffffffff168273ffffffffffffffffffffffffffffffffffffffff161461251c5761251b8282612b13565b5b5b505050565b60006125438473ffffffffffffffffffffffffffffffffffffffff16612b92565b156126ac578373ffffffffffffffffffffffffffffffffffffffff1663150b7a0261256c611a12565b8786866040518563ffffffff1660e01b815260040161258e9493929190614085565b602060405180830381600087803b1580156125a857600080fd5b505af19250505080156125d957506040513d601f19601f820116820180604052508101906125d691906140e6565b60015b61265c573d8060008114612609576040519150601f19603f3d011682016040523d82523d6000602084013e61260e565b606091505b50600081511415612654576040517f08c379a000000000000000000000000000000000000000000000000000000000815260040161264b90613f96565b60405180910390fd5b805181602001fd5b63150b7a0260e01b7bffffffffffffffffffffffffffffffffffffffffffffffffffffffff1916817bffffffffffffffffffffffffffffffffffffffffffffffffffffffff1916149150506126b1565b600190505b949350505050565b600073ffffffffffffffffffffffffffffffffffffffff168273ffffffffffffffffffffffffffffffffffffffff161415612729576040517f08c379a00000000000000000000000000000000000000000000000000000000081526004016127209061415f565b60405180910390fd5b612732816119a6565b15612772576040517f08c379a0000000000000000000000000000000000000000000000000000000008152600401612769906141cb565b60405180910390fd5b61277e6000838361240e565b6001600360008473ffffffffffffffffffffffffffffffffffffffff1673ffffffffffffffffffffffffffffffffffffffff16815260200190815260200160002060008282546127ce919061366f565b92505081905550816002600083815260200190815260200160002060006101000a81548173ffffffffffffffffffffffffffffffffffffffff021916908373ffffffffffffffffffffffffffffffffffffffff160217905550808273ffffffffffffffffffffffffffffffffffffffff16600073ffffffffffffffffffffffffffffffffffffffff167fddf252ad1be2c89b69c2b068fc378daa952ba7f163c4a11628f55a4df523b3ef60405160405180910390a45050565b505050565b6008805490506009600083815260200190815260200160002081905550600881908060018154018082558091505060019003906000526020600020016000909190919091505550565b600060016128e28461106f565b6128ec91906135f5565b90506000600760008481526020019081526020016000205490508181146129d1576000600660008673ffffffffffffffffffffffffffffffffffffffff1673ffffffffffffffffffffffffffffffffffffffff168152602001908152602001600020600084815260200190815260200160002054905080600660008773ffffffffffffffffffffffffffffffffffffffff1673ffffffffffffffffffffffffffffffffffffffff168152602001908152602001600020600084815260200190815260200160002081905550816007600083815260200190815260200160002081905550505b6007600084815260200190815260200160002060009055600660008573ffffffffffffffffffffffffffffffffffffffff1673ffffffffffffffffffffffffffffffffffffffff16815260200190815260200160002060008381526020019081526020016000206000905550505050565b60006001600880549050612a5691906135f5565b9050600060096000848152602001908152602001600020549050600060088381548110612a8657612a8561391e565b5b906000526020600020015490508060088381548110612aa857612aa761391e565b5b906000526020600020018190555081600960008381526020019081526020016000208190555060096000858152602001908152602001600020600090556008805480612af757612af66141eb565b5b6001900381819060005260206000200160009055905550505050565b6000612b1e8361106f565b905081600660008573ffffffffffffffffffffffffffffffffffffffff1673ffffffffffffffffffffffffffffffffffffffff168152602001908152602001600020600083815260200190815260200160002081905550806007600084815260200190815260200160002081905550505050565b600080823b905060008111915050919050565b828054612bb190613324565b90600052602060002090601f016020900481019282612bd35760008555612c1a565b82601f10612bec57805160ff1916838001178555612c1a565b82800160010185558215612c1a579182015b82811115612c19578251825591602001919060010190612bfe565b5b509050612c279190612c2b565b5090565b5b80821115612c44576000816000905550600101612c2c565b5090565b6000604051905090565b600080fd5b600080fd5b60007fffffffff0000000000000000000000000000000000000000000000000000000082169050919050565b612c9181612c5c565b8114612c9c57600080fd5b50565b600081359050612cae81612c88565b92915050565b600060208284031215612cca57612cc9612c52565b5b6000612cd884828501612c9f565b91505092915050565b60008115159050919050565b612cf681612ce1565b82525050565b6000602082019050612d116000830184612ced565b92915050565b600081519050919050565b600082825260208201905092915050565b60005b83811015612d51578082015181840152602081019050612d36565b83811115612d60576000848401525b50505050565b6000601f19601f8301169050919050565b6000612d8282612d17565b612d8c8185612d22565b9350612d9c818560208601612d33565b612da581612d66565b840191505092915050565b60006020820190508181036000830152612dca8184612d77565b905092915050565b6000819050919050565b612de581612dd2565b8114612df057600080fd5b50565b600081359050612e0281612ddc565b92915050565b600060208284031215612e1e57612e1d612c52565b5b6000612e2c84828501612df3565b91505092915050565b600073ffffffffffffffffffffffffffffffffffffffff82169050919050565b6000612e6082612e35565b9050919050565b612e7081612e55565b82525050565b6000602082019050612e8b6000830184612e67565b92915050565b612e9a81612e55565b8114612ea557600080fd5b50565b600081359050612eb781612e91565b92915050565b60008060408385031215612ed457612ed3612c52565b5b6000612ee285828601612ea8565b9250506020612ef385828601612df3565b9150509250929050565b612f0681612dd2565b82525050565b6000602082019050612f216000830184612efd565b92915050565b600080600060608486031215612f4057612f3f612c52565b5b6000612f4e86828701612ea8565b9350506020612f5f86828701612ea8565b9250506040612f7086828701612df3565b9150509250925092565b600080fd5b600080fd5b7f4e487b7100000000000000000000000000000000000000000000000000000000600052604160045260246000fd5b612fbc82612d66565b810181811067ffffffffffffffff82111715612fdb57612fda612f84565b5b80604052505050565b6000612fee612c48565b9050612ffa8282612fb3565b919050565b600067ffffffffffffffff82111561301a57613019612f84565b5b61302382612d66565b9050602081019050919050565b82818337600083830152505050565b600061305261304d84612fff565b612fe4565b90508281526020810184848401111561306e5761306d612f7f565b5b613079848285613030565b509392505050565b600082601f83011261309657613095612f7a565b5b81356130a684826020860161303f565b91505092915050565b6000602082840312156130c5576130c4612c52565b5b600082013567ffffffffffffffff8111156130e3576130e2612c57565b5b6130ef84828501613081565b91505092915050565b60006020828403121561310e5761310d612c52565b5b600061311c84828501612ea8565b91505092915050565b61312e81612ce1565b811461313957600080fd5b50565b60008135905061314b81613125565b92915050565b6000806040838503121561316857613167612c52565b5b600061317685828601612ea8565b92505060206131878582860161313c565b9150509250929050565b600067ffffffffffffffff8211156131ac576131ab612f84565b5b6131b582612d66565b9050602081019050919050565b60006131d56131d084613191565b612fe4565b9050828152602081018484840111156131f1576131f0612f7f565b5b6131fc848285613030565b509392505050565b600082601f83011261321957613218612f7a565b5b81356132298482602086016131c2565b91505092915050565b6000806000806080858703121561324c5761324b612c52565b5b600061325a87828801612ea8565b945050602061326b87828801612ea8565b935050604061327c87828801612df3565b925050606085013567ffffffffffffffff81111561329d5761329c612c57565b5b6132a987828801613204565b91505092959194509250565b600080604083850312156132cc576132cb612c52565b5b60006132da85828601612ea8565b92505060206132eb85828601612ea8565b9150509250929050565b7f4e487b7100000000000000000000000000000000000000000000000000000000600052602260045260246000fd5b6000600282049050600182168061333c57607f821691505b602082108114156133505761334f6132f5565b5b50919050565b7f4552433732313a20617070726f76656420717565727920666f72206e6f6e657860008201527f697374656e7420746f6b656e0000000000000000000000000000000000000000602082015250565b60006133b2602c83612d22565b91506133bd82613356565b604082019050919050565b600060208201905081810360008301526133e1816133a5565b9050919050565b7f4552433732313a20617070726f76616c20746f2063757272656e74206f776e6560008201527f7200000000000000000000000000000000000000000000000000000000000000602082015250565b6000613444602183612d22565b915061344f826133e8565b604082019050919050565b6000602082019050818103600083015261347381613437565b9050919050565b7f4552433732313a20617070726f76652063616c6c6572206973206e6f74206f7760008201527f6e6572206e6f7220617070726f76656420666f7220616c6c0000000000000000602082015250565b60006134d6603883612d22565b91506134e18261347a565b604082019050919050565b60006020820190508181036000830152613505816134c9565b9050919050565b7f4e487b7100000000000000000000000000000000000000000000000000000000600052601160045260246000fd5b600061354682612dd2565b915061355183612dd2565b9250817fffffffffffffffffffffffffffffffffffffffffffffffffffffffffffffffff048311821515161561358a5761358961350c565b5b828202905092915050565b7f4e487b7100000000000000000000000000000000000000000000000000000000600052601260045260246000fd5b60006135cf82612dd2565b91506135da83612dd2565b9250826135ea576135e9613595565b5b828204905092915050565b600061360082612dd2565b915061360b83612dd2565b92508282101561361e5761361d61350c565b5b828203905092915050565b600081905092915050565b50565b6000613644600083613629565b915061364f82613634565b600082019050919050565b600061366582613637565b9150819050919050565b600061367a82612dd2565b915061368583612dd2565b9250827fffffffffffffffffffffffffffffffffffffffffffffffffffffffffffffffff038211156136ba576136b961350c565b5b828201905092915050565b7f4d656d62657273686970733a206e6f74207472616e7366657261626c65000000600082015250565b60006136fb601d83612d22565b9150613706826136c5565b602082019050919050565b6000602082019050818103600083015261372a816136ee565b9050919050565b7f4552433732313a207472616e736665722063616c6c6572206973206e6f74206f60008201527f776e6572206e6f7220617070726f766564000000000000000000000000000000602082015250565b600061378d603183612d22565b915061379882613731565b604082019050919050565b600060208201905081810360008301526137bc81613780565b9050919050565b60006060820190506137d86000830186612e67565b6137e56020830185612e67565b6137f26040830184612efd565b949350505050565b7f455243373231456e756d657261626c653a206f776e657220696e646578206f7560008201527f74206f6620626f756e6473000000000000000000000000000000000000000000602082015250565b6000613856602b83612d22565b9150613861826137fa565b604082019050919050565b6000602082019050818103600083015261388581613849565b9050919050565b7f455243373231456e756d657261626c653a20676c6f62616c20696e646578206f60008201527f7574206f6620626f756e64730000000000000000000000000000000000000000602082015250565b60006138e8602c83612d22565b91506138f38261388c565b604082019050919050565b60006020820190508181036000830152613917816138db565b9050919050565b7f4e487b7100000000000000000000000000000000000000000000000000000000600052603260045260246000fd5b7f4f776e61626c653a2063616c6c6572206973206e6f7420746865206f776e6572600082015250565b6000613983602083612d22565b915061398e8261394d565b602082019050919050565b600060208201905081810360008301526139b281613976565b9050919050565b7f4552433732313a206f776e657220717565727920666f72206e6f6e657869737460008201527f656e7420746f6b656e0000000000000000000000000000000000000000000000602082015250565b6000613a15602983612d22565b9150613a20826139b9565b604082019050919050565b60006020820190508181036000830152613a4481613a08565b9050919050565b7f4552433732313a2062616c616e636520717565727920666f7220746865207a6560008201527f726f206164647265737300000000000000000000000000000000000000000000602082015250565b6000613aa7602a83612d22565b9150613ab282613a4b565b604082019050919050565b60006020820190508181036000830152613ad681613a9a565b9050919050565b7f4552433732314d657461646174613a2055524920717565727920666f72206e6f60008201527f6e6578697374656e7420746f6b656e0000000000000000000000000000000000602082015250565b6000613b39602f83612d22565b9150613b4482613add565b604082019050919050565b60006020820190508181036000830152613b6881613b2c565b9050919050565b600081905092915050565b6000613b8582612d17565b613b8f8185613b6f565b9350613b9f818560208601612d33565b80840191505092915050565b60008190508160005260206000209050919050565b60008154613bcd81613324565b613bd78186613b6f565b94506001821660008114613bf25760018114613c0357613c36565b60ff19831686528186019350613c36565b613c0c85613bab565b60005b83811015613c2e57815481890152600182019150602081019050613c0f565b838801955050505b50505092915050565b6000613c4b8286613b7a565b9150613c578285613b7a565b9150613c638284613bc0565b9150819050949350505050565b7f4f776e61626c653a206e6577206f776e657220697320746865207a65726f206160008201527f6464726573730000000000000000000000000000000000000000000000000000602082015250565b6000613ccc602683612d22565b9150613cd782613c70565b604082019050919050565b60006020820190508181036000830152613cfb81613cbf565b9050919050565b7f4552433732313a206f70657261746f7220717565727920666f72206e6f6e657860008201527f697374656e7420746f6b656e0000000000000000000000000000000000000000602082015250565b6000613d5e602c83612d22565b9150613d6982613d02565b604082019050919050565b60006020820190508181036000830152613d8d81613d51565b9050919050565b7f4552433732313a207472616e73666572206f6620746f6b656e2074686174206960008201527f73206e6f74206f776e0000000000000000000000000000000000000000000000602082015250565b6000613df0602983612d22565b9150613dfb82613d94565b604082019050919050565b60006020820190508181036000830152613e1f81613de3565b9050919050565b7f4552433732313a207472616e7366657220746f20746865207a65726f2061646460008201527f7265737300000000000000000000000000000000000000000000000000000000602082015250565b6000613e82602483612d22565b9150613e8d82613e26565b604082019050919050565b60006020820190508181036000830152613eb181613e75565b9050919050565b7f4552433732313a20617070726f766520746f2063616c6c657200000000000000600082015250565b6000613eee601983612d22565b9150613ef982613eb8565b602082019050919050565b60006020820190508181036000830152613f1d81613ee1565b9050919050565b7f4552433732313a207472616e7366657220746f206e6f6e20455243373231526560008201527f63656976657220696d706c656d656e7465720000000000000000000000000000602082015250565b6000613f80603283612d22565b9150613f8b82613f24565b604082019050919050565b60006020820190508181036000830152613faf81613f73565b9050919050565b6000613fc182612dd2565b91507fffffffffffffffffffffffffffffffffffffffffffffffffffffffffffffffff821415613ff457613ff361350c565b5b600182019050919050565b600061400a82612dd2565b915061401583612dd2565b92508261402557614024613595565b5b828206905092915050565b600081519050919050565b600082825260208201905092915050565b600061405782614030565b614061818561403b565b9350614071818560208601612d33565b61407a81612d66565b840191505092915050565b600060808201905061409a6000830187612e67565b6140a76020830186612e67565b6140b46040830185612efd565b81810360608301526140c6818461404c565b905095945050505050565b6000815190506140e081612c88565b92915050565b6000602082840312156140fc576140fb612c52565b5b600061410a848285016140d1565b91505092915050565b7f4552433732313a206d696e7420746f20746865207a65726f2061646472657373600082015250565b6000614149602083612d22565b915061415482614113565b602082019050919050565b600060208201905081810360008301526141788161413c565b9050919050565b7f4552433732313a20746f6b656e20616c7265616479206d696e74656400000000600082015250565b60006141b5601c83612d22565b91506141c08261417f565b602082019050919050565b600060208201905081810360008301526141e4816141a8565b9050919050565b7f4e487b7100000000000000000000000000000000000000000000000000000000600052603160045260246000fdfea2646970667358221220d471df206016ddc39409cc01486181b53dba8e9396462197080b55b27795d0fa64736f6c63430008090033",
  "immutableReferences": {},
  "source": "// SPDX-License-Identifier: MIT\n\nimport \"./ERC721.sol\";\nimport \"./ERC721Enumerable.sol\";\nimport \"@openzeppelin/contracts/access/Ownable.sol\";\n\npragma solidity >=0.7.0 <0.9.0;\n\ncontract NFT is ERC721Enumerable, Ownable {\n\n    using Strings for uint256;\n\n    uint256 public cost = 1 ether;\n    uint256 public maxSupply = 20;\n\n    string baseURI;\n    string public baseExtension = \".json\";\n\n    address public artist;\n    uint256 public royalityFee;\n\n\n    bool public transferable_;\n\n    // Events\n    event Sale(address from, address to, uint256 value);\n\n    event ToggleTransferable(bool transferable);\n\n    constructor(\n        string memory _name,\n        string memory _symbol,\n        string memory _initBaseURI,\n        uint256 _royalityFee,\n        address _artist,\n        bool _transferable\n    ) ERC721(_name, _symbol) {\n        setBaseURI(_initBaseURI);\n        royalityFee = _royalityFee;\n        artist = _artist;\n        transferable_ = _transferable;\n    }\n\n\n\n    // External functions\n    function toggleTransferable() external onlyOwner returns (bool) {\n        if (transferable_) {\n            transferable_ = false;\n        } else {\n            transferable_ = true;\n        }\n        emit ToggleTransferable(transferable_);\n        return transferable_;\n    }\n\n\n    // Public functions\n    function transferable() public view returns (bool) {\n        return transferable_;\n    }\n\n    function mint() public payable {\n        uint256 supply = totalSupply();\n        require(supply <= maxSupply);\n\n        if (msg.sender != owner()) {\n            require(msg.value >= cost);\n\n            // Pay royality to artist, and remaining to deployer of contract\n\n            uint256 royality = (msg.value * royalityFee) / 100;\n            _payRoyality(royality);\n\n            (bool success2, ) = payable(owner()).call{\n                value: (msg.value - royality)\n            }(\"\");\n            require(success2);\n        }\n\n        _safeMint(msg.sender, supply + 1);\n    }\n\n    function tokenURI(uint256 tokenId)\n        public\n        view\n        virtual\n        override\n        returns (string memory)\n    {\n        require(\n            _exists(tokenId),\n            \"ERC721Metadata: URI query for nonexistent token\"\n        );\n\n        string memory currentBaseURI = _baseURI();\n        return\n            bytes(currentBaseURI).length > 0\n                ? string(\n                    abi.encodePacked(\n                        currentBaseURI,\n                        tokenId.toString(),\n                        baseExtension\n                    )\n                )\n                : \"\";\n    }\n\n    // Added isTransferable only\n    function transferFrom(\n        address from,\n        address to,\n        uint256 tokenId\n    ) public payable override isTransferable{\n        require(\n            _isApprovedOrOwner(_msgSender(), tokenId),\n            \"ERC721: transfer caller is not owner nor approved\"\n        );\n\n        if (msg.value > 0) {\n            uint256 royality = (msg.value * royalityFee) / 100;\n            _payRoyality(royality);\n\n            (bool success2, ) = payable(from).call{value: msg.value - royality}(\n                \"\"\n            );\n            require(success2);\n\n            emit Sale(from, to, msg.value);\n        }\n\n        _transfer(from, to, tokenId);\n    }\n\n    // Added isTransferable only\n    function safeTransferFrom(\n        address from,\n        address to,\n        uint256 tokenId\n    ) public payable override isTransferable{\n        if (msg.value > 0) {\n            uint256 royality = (msg.value * royalityFee) / 100;\n            _payRoyality(royality);\n\n            (bool success2, ) = payable(from).call{value: msg.value - royality}(\n                \"\"\n            );\n            require(success2);\n\n            emit Sale(from, to, msg.value);\n        }\n\n        safeTransferFrom(from, to, tokenId, \"\");\n    }\n\n    // Added isTransferable only\n    function safeTransferFrom(\n        address from,\n        address to,\n        uint256 tokenId,\n        bytes memory _data\n    ) public payable override isTransferable {\n        require(\n            _isApprovedOrOwner(_msgSender(), tokenId),\n            \"ERC721: transfer caller is not owner nor approved\"\n        );\n\n        if (msg.value > 0) {\n            uint256 royality = (msg.value * royalityFee) / 100;\n            _payRoyality(royality);\n\n            (bool success2, ) = payable(from).call{value: msg.value - royality}(\n                \"\"\n            );\n            require(success2);\n\n            emit Sale(from, to, msg.value);\n        }\n\n        _safeTransfer(from, to, tokenId, _data);\n    }\n\n    // Internal functions\n    function _baseURI() internal view virtual override returns (string memory) {\n        return baseURI;\n    }\n\n    function _payRoyality(uint256 _royalityFee) internal {\n        (bool success1, ) = payable(artist).call{value: _royalityFee}(\"\");\n        require(success1);\n    }\n\n    // Owner functions\n    function setBaseURI(string memory _newBaseURI) public onlyOwner {\n        baseURI = _newBaseURI;\n    }\n\n    function setRoyalityFee(uint256 _royalityFee) public onlyOwner {\n        royalityFee = _royalityFee;\n    }\n\n    // Modifiers\n    modifier isTransferable() {\n        require(transferable() == true, \"Memberships: not transferable\");\n        _;\n    }\n}\n",
  "sourcePath": "/home/dex/smart-contracts/nft-with-royalties/contracts/NFT.sol",
  "compiler": {
    "name": "solc",
    "version": "0.8.9+commit.e5eed63a.Emscripten.clang"
  },
  "schemaVersion": "3.4.4",
  "updatedAt": "2022-02-07T04:03:57.242Z",
  "networkType": "ethereum",
  "devdoc": {
    "kind": "dev",
    "methods": {
      "approve(address,uint256)": {
        "details": "See {IERC721-approve}."
      },
      "balanceOf(address)": {
        "details": "See {IERC721-balanceOf}."
      },
      "getApproved(uint256)": {
        "details": "See {IERC721-getApproved}."
      },
      "isApprovedForAll(address,address)": {
        "details": "See {IERC721-isApprovedForAll}."
      },
      "name()": {
        "details": "See {IERC721Metadata-name}."
      },
      "owner()": {
        "details": "Returns the address of the current owner."
      },
      "ownerOf(uint256)": {
        "details": "See {IERC721-ownerOf}."
      },
      "renounceOwnership()": {
        "details": "Leaves the contract without owner. It will not be possible to call `onlyOwner` functions anymore. Can only be called by the current owner. NOTE: Renouncing ownership will leave the contract without an owner, thereby removing any functionality that is only available to the owner."
      },
      "safeTransferFrom(address,address,uint256)": {
        "details": "See {IERC721-safeTransferFrom}."
      },
      "safeTransferFrom(address,address,uint256,bytes)": {
        "details": "See {IERC721-safeTransferFrom}."
      },
      "setApprovalForAll(address,bool)": {
        "details": "See {IERC721-setApprovalForAll}."
      },
      "supportsInterface(bytes4)": {
        "details": "See {IERC165-supportsInterface}."
      },
      "symbol()": {
        "details": "See {IERC721Metadata-symbol}."
      },
      "tokenByIndex(uint256)": {
        "details": "See {IERC721Enumerable-tokenByIndex}."
      },
      "tokenOfOwnerByIndex(address,uint256)": {
        "details": "See {IERC721Enumerable-tokenOfOwnerByIndex}."
      },
      "tokenURI(uint256)": {
        "details": "See {IERC721Metadata-tokenURI}."
      },
      "totalSupply()": {
        "details": "See {IERC721Enumerable-totalSupply}."
      },
      "transferFrom(address,address,uint256)": {
        "details": "See {IERC721-transferFrom}."
      },
      "transferOwnership(address)": {
        "details": "Transfers ownership of the contract to a new account (`newOwner`). Can only be called by the current owner."
      }
    },
    "version": 1
  },
  "userdoc": {
    "kind": "user",
    "methods": {},
    "version": 1
  }
}